:100000000C9446000C9465000C9465000C946500FB
:100010000C9465000C9465000C9465000C946500CC
:100020000C9465000C9465000C9465000C946500BC
:100030000C9465000C9465000C9465000C946500AC
:100040000C9465000C9465000C9465000C9465009C
:100050000C9465000C9465000C9465000C9465008C
:100060000C9465000C9465000C9465000C9465007C
:100070000C94F6020C9465000C9465000C946500D9
:100080000C9465000C9465000C94650011241FBE4F
:10009000CFEFD0E4DEBFCDBF11E0A0E0B1E0E6E0FD
:1000A000F7E000E00BBF02C007900D92A83DB1073A
:1000B000D9F712E0A8EDB1E001C01D92A931B10756
:1000C000E1F70E9449030C9481030C9400008EBD5B
:1000D0000DB407FEFDCF8EB508952C988EBD0DB4DE
:1000E00007FEFDCF8EB56EBD0DB407FEFDCF8EB5FC
:1000F0002C9A08952C988EBD0DB407FEFDCF8EB5B9
:100100001EBC0DB407FEFDCF8EB52C9A08952C9819
:100110008EBD0DB407FEFDCF8EB5FB0190E007C08C
:100120001EBC0DB407FEFDCF8EB581939F5F941763
:10013000B8F32C9A08952C988EBD0DB407FEFDCF10
:100140008EB5FB0107C080818EBD0DB407FEFDCFCB
:1001500031968EB58E2F861B8417A8F32C9A08959E
:1001600082EE60E00E946D0087E00E947A00682FB6
:1001700087E20E946D002A9880E00E947A00682F32
:10018000616080E20E946D002A9A089581EE60E02D
:100190000E946D002A9880E00E947A00682F6E7F8E
:1001A00080E20E946D002A9A08951F93182F87E01D
:1001B0000E947A0087FF03C0112319F006C01123A3
:1001C00021F080E563E50E946D001F910895682F7E
:1001D00085E20E946D000895CF92DF92EF92FF9228
:1001E0000F931F93DF93CF93CDB7DEB72C970FB646
:1001F000F894DEBF0FBECDBF80ED97E024E131E083
:10020000F9013197F1F70197D9F780E00E94D50005
:10021000A0EAEA2EA1E0FA2EF701808180626181D6
:100220000E946D0082E090E0E80EF91E98ECE9165D
:1002300091E0F90689F7F4E3CF2EC982E3E4DE2EDC
:10024000DA8270E1F72EFB82FC82EE24E394ED82E9
:100250008AE28E010F5F1F4FB80145E00E949B00AC
:1002600089E3898388E38A8387E38B8386E38C83AE
:1002700082EC8D838BE2B80145E00E949B00C9822D
:10028000DA82FB82FC82ED8280E3B80145E00E94C5
:100290009B008DE10E947A00882321F480E563E7CA
:1002A0000E946D008091CC0180626091CD010E941E
:1002B0006D008091CA0180626091CB010E946D0047
:1002C00081E00E94D5006DE5E62E61E0F62E00E0AB
:1002D0006E010894C11CD11C09C051E8E52E51E003
:1002E000F52E6E010894C11CD11C3DC0F70181910F
:1002F0009191A191B1917F018983292F3A2F4B2FA1
:1003000055272A839D01442755272B838B2F992717
:10031000AA27BB278C83802F8062B60144E00E940D
:100320009B000F5F093011F7D8CFDB01CA01022E05
:1003300004C0B695A795979587950A94D2F78193AF
:10034000285030408FEF283F380779F7802F8062A0
:10035000B60144E00E949B000F5FE4E0F0E0EE0E87
:10036000FF1E0E3049F0F701408151816281738197
:10037000F60128E130E0D9CF20E030E07E0108949A
:10038000E11CF11CF701E20FF31FD901AB56BE4F80
:100390008C9180832F5F3F4F2B30310599F78EE290
:1003A000B7014BE00E949B0086E98A8382E88B8339
:1003B0008BE18C838FED898384E2B70144E00E9456
:1003C0009B008981897F898384E2B70144E00E9490
:1003D0009B0084EF91E024E131E0F9013197F1F7DE
:1003E0000197D9F780E00E94D5000E94B0002C96BA
:1003F0000FB6F894DEBF0FBECDBFCF91DF911F9136
:100400000F91FF90EF90DF90CF90089580E197E2F9
:1004100024E131E0F9013197F1F70197D9F7089517
:1004200080E885BF85BF84EB84B980E787B98CB548
:1004300083658CBDA9ECB0E08C9188618C93EAEC6B
:10044000F0E08081866080838FE88093CC001092FA
:10045000CD008C9180688C930895AC0120E007C09A
:100460008091C80085FFFCCFE093CE002F5FFA019A
:10047000E20FF11DE081EE2399F70895DF92EF92EC
:10048000FF920F931F93DF93CF93CDB7DEB7A09763
:100490000FB6F894DEBF0FBECDBF87E00E947A0092
:1004A000D82E86FF55C010E07E010894E11CF11C97
:1004B00080E60E947A00082F813238F481E6B70185
:1004C000402F0E948700100F04C082EE60E00E945F
:1004D0006D0087E10E947A0080FFEACF812F90E0D3
:1004E0009E012F5F3F4FF901E80FF91F108240E096
:1004F00050E0DC01119705C0E20FF31F8081580F17
:100500004F5FE42FF0E0EA17FB07B4F3A20FB31F2D
:100510008C915817E9F4469A88EE93E024E131E093
:10052000F9013197F1F70197D9F746980E94B00089
:10053000FE01E00FF11D108280E091E00E942D028B
:10054000CE0101960E942D028CE091E00E942D02C6
:1005500087E26D2D0E946D00A0960FB6F894DEBF65
:100560000FBECDBFCF91DF911F910F91FF90EF9004
:10057000DF9008950F931F93CF93DF93082FEB0124
:10058000142F0E94C60087E10E947A0085FD29C0D1
:10059000449A802FBE01412F0E949B00FE01E10F73
:1005A000F11D3197108281E191E00E942D02CE0170
:1005B0000E942D028CE091E00E942D0284EF91E0D8
:1005C00024E131E0F9013197F1F70197D9F7449827
:1005D00084EF91E024E131E0F9013197F1F70197DF
:1005E000D9F7DF91CF911F910F9108951F920F922C
:1005F0000FB60F920BB60F9211242F933F934F9388
:100600005F938F939F93AF93BF93EF93FF9350911B
:10061000CE00E9EFF1E001900020E9F73197E95FC2
:10062000F1404E2FEE3140F0A9EFB1E090E02E2FD7
:1006300030E02A0F3B1F05C05D3079F4F5CF8D9176
:10064000980FA217B307D9F7E42FF0E0E750FE4F59
:10065000908381E08093D80104C0F0E0E750FE4F22
:100660005083E42FF0E0E750FE4F11825093CE000C
:10067000FF91EF91BF91AF919F918F915F914F91BA
:100680003F912F910F900BBE0F900FBE0F901F90B8
:100690001895CF93DF930E9410021092F90178947D
:1006A00080E197E224E131E0F9013197F1F7019718
:1006B000D9F70E94EC008BE191E00E942D02C9EF76
:1006C000D1E08091D8018130C9F48AE591E00E949F
:1006D0002D02F894FE0101900020E9F73197E95FBF
:1006E000F14080EB69EF71E04E2F0E94BA02109248
:1006F000F9011092D80178940E94B0000E943E0245
:06070000E0CFF894FFCFEA
:10070600526563656976696E673A20000A0D0A0DBF
:100716000053656E64696E673A20002A2A2A2A2ADF
:100726002A2A2A2A2A57656C636F6D6520746F2002
:100736004557535F52464D37335F434841545F45F3
:1007460058414D504C4521212121212A2A2A2A2A65
:100756002A2A2A2A2A0A0D0A0D000A0D00404B01F0
:10076600E2C04B0000D0FC8C0299003941D9968238
:100776001B24027FA600000000000000000000000D
:1007860000000000000000000000000000007312DE
:10079600000080B446412008048120CFF7FEFFFF09
:1007A600000F013F023F030304FF05170607070773
:1007B600080009000CC30DC40EC50FC61120122077
:1007C600132014201520162017001C3F1D07344344
:0807D60010100139383736C25A
:00000001FF
