S0190000436F6E74726F6C6C65724D61696E4170702E7372656341
S113000012C02CC02BC02AC029C028C027C026C0BB
S113001025C024C023C022C021C020C01FC01EC0D0
S11300201DC01CC01BC011241FBECFE5D4E0DEBF21
S1130030CDBF10E0A0E6B0E0ECEFF0E002C0059028
S11300400D92A236B107D9F720E0A2E6B0E001C0D4
S11300501D92A336B207E1F738D04EC0D1CFE7EAFC
S1130060F1E63197F1F700C0000084569109853616
S11300709105A8F7089595B3937E807E869586951D
S1130080869520916200821304C020916000213083
S1130090D9F41092600080936200982B95BB8695EA
S11300A08695837051F4A99A84EF91E0D8DFA89AD9
S11300B080ED97E0D4DFA8980895833029F4A998B7
S11300C084EF91E0CCDFA898089584B38F6384BB58
S11300D081B38F7181BB80EF82BBA898A99885B347
S11300E08C6185BBC0E280B3C6DF88EE93E0B7DFE6
S10F00F085B38C2785BBF7CFF894FFCFB5
S10500FC0100FD
S9030000FC
