:100000000C9434000C9451000C9451000C94510049
:100010000C9451000C9451000C9451000C9451001C
:100020000C9451000C9451000C9451000C9451000C
:100030000C9451000C9451000C9451000C945100FC
:100040000C9451000C9451000C94DF020C9451005C
:100050000C9451000C9451000C9451000C945100DC
:100060000C9451000C94510011241FBECFEFD8E026
:10007000DEBFCDBF11E0A0E0B1E0E0EDF6E002C0F0
:1000800005900D92A83DB107D9F712E0A8EDB1E0B7
:1000900001C01D92A931B107E1F70E942E030C9413
:1000A00066030C9400008EBD0DB407FEFDCF8EB527
:1000B00008952A988EBD0DB407FEFDCF8EB56EBD96
:1000C0000DB407FEFDCF8EB52A9A08952A988EBDED
:1000D0000DB407FEFDCF8EB51EBC0DB407FEFDCFDF
:1000E0008EB52A9A08952A988EBD0DB407FEFDCFCD
:1000F0008EB5FB0190E007C01EBC0DB407FEFDCF1E
:100100008EB581939F5F9417B8F32A9A08952A9821
:100110008EBD0DB407FEFDCF8EB5FB0107C08081FB
:100120008EBD0DB407FEFDCF31968EB58E2F861B8A
:100130008417A8F32A9A089582EE60E00E9459007D
:1001400087E00E946600682F87E20E94590042986B
:1001500080E00E946600682F616080E20E94590082
:10016000429A089581EE60E00E945900429880E032
:100170000E946600682F6E7F80E20E945900429ABA
:1001800008951F93182F87E00E94660087FF03C021
:10019000112319F006C0112321F080E563E50E94C8
:1001A00059001F910895682F85E20E945900089513
:1001B000CF92DF92EF92FF920F931F93DF93CF9333
:1001C000CDB7DEB72C970FB6F894DEBF0FBECDBF0C
:1001D00080ED97E028EC30E0F9013197F1F70197D5
:1001E000D9F780E00E94C100A0EAEA2EA1E0FA2E31
:1001F000F7018081806261810E94590082E090E075
:10020000E80EF91E98ECE91691E0F90689F7F4E397
:10021000CF2EC982E3E4DE2EDA8270E1F72EFB8274
:10022000FC82EE24E394ED828AE28E010F5F1F4F81
:10023000B80145E00E94870089E3898388E38A83C7
:1002400087E38B8386E38C8382EC8D838BE2B8011A
:1002500045E00E948700C982DA82FB82FC82ED823F
:1002600080E3B80145E00E9487008DE10E946600AE
:10027000882321F480E563E70E9459008091CC0136
:1002800080626091CD010E9459008091CA01806214
:100290006091CB010E94590081E00E94C1006DE590
:1002A000E62E61E0F62E00E06E010894C11CD11C20
:1002B00009C051E8E52E51E0F52E6E010894C11CED
:1002C000D11C3DC0F70181919191A191B1917F0124
:1002D0008983292F3A2F4B2F55272A839D014427A5
:1002E00055272B838B2F9927AA27BB278C83802FF9
:1002F0008062B60144E00E9487000F5F093011F769
:10030000D8CFDB01CA01022E04C0B695A7959795F8
:1003100087950A94D2F78193285030408FEF283F79
:10032000380779F7802F8062B60144E00E94870089
:100330000F5FE4E0F0E0EE0EFF1E0E3049F0F70133
:100340004081518162817381F60128E130E0D9CF8B
:1003500020E030E07E010894E11CF11CF701E20F7F
:10036000F31FD901AB56BE4F8C9180832F5F3F4F57
:100370002B30310599F78EE2B7014BE00E948700E0
:1003800086E98A8382E88B838BE18C838FED898376
:1003900084E2B70144E00E9487008981897F8983D4
:1003A00084E2B70144E00E94870084EF91E028ECEA
:1003B00030E0F9013197F1F70197D9F780E00E9419
:1003C000C1000E949C002C960FB6F894DEBF0FBEB1
:1003D000CDBFCF91DF911F910F91FF90EF90DF90F4
:1003E000CF90089580E197E228EC30E0F901319751
:1003F000F1F70197D9F708958EEE84B98FEF87B999
:100400008CB583658CBDA1ECB0E08C9188618C9338
:10041000E2ECF0E080818660808387E68093C40010
:100420001092C5008C9180688C930895AC0120E0F7
:1004300007C08091C00085FFFCCFE093C6002F5F0E
:10044000FA01E20FF11DE081EE2399F70895DF92A2
:10045000EF92FF920F931F93DF93CF93CDB7DEB749
:10046000A0970FB6F894DEBF0FBECDBF87E00E9405
:100470006600D82E86FF55C010E07E010894E11C6E
:10048000F11C80E60E946600082F813238F481E674
:10049000B701402F0E947300100F04C082EE60E08D
:1004A0000E94590087E10E94660080FFEACF812FF9
:1004B00090E09E012F5F3F4FF901E80FF91F108276
:1004C00040E050E0DC01119705C0E20FF31F80818E
:1004D000580F4F5FE42FF0E0EA17FB07B4F3A20FC9
:1004E000B31F8C915817E9F4289A88EE93E028EC12
:1004F00030E0F9013197F1F70197D9F728980E9478
:100500009C00FE01E00FF11D108280E091E00E944E
:100510001602CE0101960E9416028CE091E00E9424
:10052000160287E26D2D0E945900A0960FB6F8942E
:10053000DEBF0FBECDBFCF91DF911F910F91FF9016
:10054000EF90DF9008950F931F93CF93DF93082FC1
:10055000EB01142F0E94B20087E10E94660085FD26
:1005600029C0299A802FBE01412F0E948700FE01D9
:10057000E10FF11D3197108281E191E00E94160296
:10058000CE010E9416028CE091E00E94160284EFD8
:1005900091E028EC30E0F9013197F1F70197D9F7B4
:1005A000299884EF91E028EC30E0F9013197F1F7D8
:1005B0000197D9F7DF91CF911F910F9108951F9265
:1005C0000F920FB60F9211242F933F934F935F9387
:1005D0008F939F93AF93BF93EF93FF935091C60078
:1005E000E9EFF1E001900020E9F73197E95FF14090
:1005F0004E2FEE3140F0A9EFB1E090E02E2F30E029
:100600002A0F3B1F05C05D3079F4F5CF8D91980F0F
:10061000A217B307D9F7E42FF0E0E750FE4F90831D
:1006200081E08093D80104C0F0E0E750FE4F508392
:10063000E42FF0E0E750FE4F11825093C600FF9187
:10064000EF91BF91AF919F918F915F914F913F91AA
:100650002F910F900FBE0F901F901895CF93DF939F
:100660000E94FC011092F901789480E197E228EC55
:1006700030E0F9013197F1F70197D9F70E94D800DE
:100680008BE191E00E941602C9EFD1E08091D80180
:100690008130C9F48AE591E00E941602F894FE01C7
:1006A00001900020E9F73197E95FF14080EB69EFB5
:1006B00071E04E2F0E94A3021092F9011092D8010E
:1006C00078940E949C000E942702E0CFF894FFCF0C
:1006D000526563656976696E673A20000A0D0A0DF6
:1006E0000053656E64696E673A20002A2A2A2A2A16
:1006F0002A2A2A2A2A57656C636F6D6520746F2039
:100700004557535F52464D37335F434841545F4529
:1007100058414D504C4521212121212A2A2A2A2A9B
:100720002A2A2A2A2A0A0D0A0D000A0D00404B0126
:10073000E2C04B0000D0FC8C0299003941D996826E
:100740001B24027FA6000000000000000000000043
:100750000000000000000000000000000000731214
:10076000000080B446412008048120CFF7FEFFFF3F
:10077000000F013F023F030304FF051706070707A9
:10078000080009000CC30DC40EC50FC611201220AD
:10079000132014201520162017001C3F1D0734437A
:0807A00010100139383736C290
:00000001FF
