:1000000012C02CC02BC02AC029C028C027C026C0BF
:1000100025C024C023C022C021C020C01FC01EC0D4
:100020001DC01CC01BC011241FBECFE5D4E0DEBF25
:10003000CDBF10E0A0E6B0E0EAE3F1E002C0059039
:100040000D92A236B107D9F720E0A2E6B0E001C0D8
:100050001D92A536B207E1F754D06DC0D1CFE7EAC3
:10006000F1E63197F1F700C000008456910985361A
:100070009105A8F7089595B3937E807E8695869521
:10008000869520916400821304C020916000213085
:10009000B9F41092600080936400982B95BB86950C
:1000A0008695982F947011F0A8980895877029F478
:1000B000A89A80ED97E0D3DF0895833009F4A898DB
:1000C000089586B3817090916300981721F0109283
:1000D000620080936300811113C0809162008111DE
:1000E0000FC01092630080B3982F907E80B380760B
:1000F000803631F099230CF0A89A81E08093620059
:10010000089584B38F6384BB81B38F7181BBB8982A
:10011000C09A80EF82BBA898A99885B38C6185BBF3
:10012000C0E2CFDF80B3A7DF88EE93E098DF85B32E
:0A0130008C2785BBF6CFF894FFCFB3
:02013A000100C2
:00000001FF
