S0190000436F6E74726F6C6C65724D61696E4170702E7372656341
S113000012C02CC02BC02AC029C028C027C026C0BB
S113001025C024C023C022C021C020C01FC01EC0D0
S11300201DC01CC01BC011241FBECFE5D4E0DEBF21
S1130030CDBF10E0A0E6B0E0E4E7F1E002C0059037
S11300400D92A236B107D9F720E0A2E6B0E001C0D4
S11300501D92A536B207E1F770D08AC0D1CFE7EA86
S1130060F1E63197F1F700C0000084569109853616
S11300709105A8F7089595B3937E807E869586951D
S1130080869520916400821304C020916000213081
S113009029F51092600080936400982B95BB869597
S11300A08695837059F4A99A84EF91E0D8DFA89AD1
S11300B080ED97E0D4DFA898C0980895833039F490
S11300C0A99884EF91E0CBDFA898C09A0895813075
S11300D011F4C09A0895823009F4C09A0895282F23
S11300E0221F2227221F35B3807890E095958795AB
S11300F09595879595958795932F9F7E892B85BB9D
S113010080916300821721F01092620020936300B3
S1130110211112C08091620081110EC0A99A84EF4E
S113012091E09DDFA89A80ED97E099DFA89810925E
S1130130630081E080936200089584B38F6384BB7D
S113014081B38F7181BBB89A80EF82BBA898A998BC
S113015085B38C6185BBD0E2C0B38C2FC0DF8C2FFC
S11301608ADF88EE93E07BDF85B38D2785BBF4CFF0
S1070170F894FFCF2D
S1050174010084
S9030000FC
